{
  "_format": "hh-sol-artifact-1",
  "contractName": "NFTMarketplace",
  "sourceName": "contracts/NFTMarketplace.sol",
  "abi": [
    {
      "inputs": [],
      "name": "CannotBuyOwnNFT",
      "type": "error"
    },
    {
      "inputs": [],
      "name": "InvalidInitialization",
      "type": "error"
    },
    {
      "inputs": [],
      "name": "NFTAlreadyListed",
      "type": "error"
    },
    {
      "inputs": [],
      "name": "NFTNotListed",
      "type": "error"
    },
    {
      "inputs": [],
      "name": "NoFeeToWithdraw",
      "type": "error"
    },
    {
      "inputs": [],
      "name": "NotInitializing",
      "type": "error"
    },
    {
      "inputs": [],
      "name": "NotOwnNFT",
      "type": "error"
    },
    {
      "inputs": [],
      "name": "NotSupportedToken",
      "type": "error"
    },
    {
      "inputs": [
        {
          "internalType": "address",
          "name": "owner",
          "type": "address"
        }
      ],
      "name": "OwnableInvalidOwner",
      "type": "error"
    },
    {
      "inputs": [
        {
          "internalType": "address",
          "name": "account",
          "type": "address"
        }
      ],
      "name": "OwnableUnauthorizedAccount",
      "type": "error"
    },
    {
      "inputs": [],
      "name": "ZeroPriceNotAllowed",
      "type": "error"
    },
    {
      "anonymous": false,
      "inputs": [
        {
          "indexed": true,
          "internalType": "address",
          "name": "buyer",
          "type": "address"
        },
        {
          "indexed": true,
          "internalType": "address",
          "name": "seller",
          "type": "address"
        },
        {
          "indexed": true,
          "internalType": "address",
          "name": "nftAddress",
          "type": "address"
        },
        {
          "indexed": false,
          "internalType": "uint256",
          "name": "tokenId",
          "type": "uint256"
        },
        {
          "indexed": false,
          "internalType": "uint256",
          "name": "price",
          "type": "uint256"
        }
      ],
      "name": "BuyNFT",
      "type": "event"
    },
    {
      "anonymous": false,
      "inputs": [
        {
          "indexed": true,
          "internalType": "address",
          "name": "owner",
          "type": "address"
        },
        {
          "indexed": true,
          "internalType": "address",
          "name": "nftAddress",
          "type": "address"
        },
        {
          "indexed": false,
          "internalType": "uint256",
          "name": "tokenId",
          "type": "uint256"
        }
      ],
      "name": "CancelListing",
      "type": "event"
    },
    {
      "anonymous": false,
      "inputs": [
        {
          "indexed": false,
          "internalType": "uint64",
          "name": "version",
          "type": "uint64"
        }
      ],
      "name": "Initialized",
      "type": "event"
    },
    {
      "anonymous": false,
      "inputs": [
        {
          "indexed": true,
          "internalType": "address",
          "name": "owner",
          "type": "address"
        },
        {
          "indexed": true,
          "internalType": "address",
          "name": "nftAddress",
          "type": "address"
        },
        {
          "indexed": false,
          "internalType": "uint256",
          "name": "tokenId",
          "type": "uint256"
        },
        {
          "indexed": false,
          "internalType": "uint256",
          "name": "price",
          "type": "uint256"
        }
      ],
      "name": "ListNFT",
      "type": "event"
    },
    {
      "anonymous": false,
      "inputs": [
        {
          "indexed": true,
          "internalType": "address",
          "name": "previousOwner",
          "type": "address"
        },
        {
          "indexed": true,
          "internalType": "address",
          "name": "newOwner",
          "type": "address"
        }
      ],
      "name": "OwnershipTransferred",
      "type": "event"
    },
    {
      "anonymous": false,
      "inputs": [
        {
          "indexed": true,
          "internalType": "address",
          "name": "token",
          "type": "address"
        }
      ],
      "name": "UnWhitelistToken",
      "type": "event"
    },
    {
      "anonymous": false,
      "inputs": [
        {
          "indexed": true,
          "internalType": "address",
          "name": "owner",
          "type": "address"
        },
        {
          "indexed": true,
          "internalType": "address",
          "name": "nftAddress",
          "type": "address"
        },
        {
          "indexed": false,
          "internalType": "uint256",
          "name": "tokenId",
          "type": "uint256"
        },
        {
          "indexed": false,
          "internalType": "uint256",
          "name": "price",
          "type": "uint256"
        }
      ],
      "name": "UpdateListing",
      "type": "event"
    },
    {
      "anonymous": false,
      "inputs": [
        {
          "indexed": true,
          "internalType": "address",
          "name": "token",
          "type": "address"
        }
      ],
      "name": "WhitelistToken",
      "type": "event"
    },
    {
      "inputs": [
        {
          "internalType": "address",
          "name": "_token",
          "type": "address"
        }
      ],
      "name": "AddTokenToWhitelist",
      "outputs": [],
      "stateMutability": "nonpayable",
      "type": "function"
    },
    {
      "inputs": [
        {
          "internalType": "address",
          "name": "_token",
          "type": "address"
        }
      ],
      "name": "RemoveFromWhitelist",
      "outputs": [],
      "stateMutability": "nonpayable",
      "type": "function"
    },
    {
      "inputs": [
        {
          "internalType": "address",
          "name": "_token",
          "type": "address"
        }
      ],
      "name": "WithdrawFees",
      "outputs": [],
      "stateMutability": "nonpayable",
      "type": "function"
    },
    {
      "inputs": [
        {
          "internalType": "address",
          "name": "nftAddress",
          "type": "address"
        },
        {
          "internalType": "uint256",
          "name": "tokenId",
          "type": "uint256"
        },
        {
          "internalType": "address",
          "name": "paymentToken",
          "type": "address"
        }
      ],
      "name": "buyItem",
      "outputs": [],
      "stateMutability": "payable",
      "type": "function"
    },
    {
      "inputs": [
        {
          "internalType": "address",
          "name": "nftAddress",
          "type": "address"
        },
        {
          "internalType": "uint256",
          "name": "tokenId",
          "type": "uint256"
        }
      ],
      "name": "cancelListing",
      "outputs": [],
      "stateMutability": "nonpayable",
      "type": "function"
    },
    {
      "inputs": [],
      "name": "feeRatio",
      "outputs": [
        {
          "internalType": "uint16",
          "name": "",
          "type": "uint16"
        }
      ],
      "stateMutability": "view",
      "type": "function"
    },
    {
      "inputs": [
        {
          "internalType": "address",
          "name": "nftAddress",
          "type": "address"
        },
        {
          "internalType": "uint256",
          "name": "tokenId",
          "type": "uint256"
        }
      ],
      "name": "getListingPrice",
      "outputs": [
        {
          "internalType": "uint256",
          "name": "",
          "type": "uint256"
        }
      ],
      "stateMutability": "view",
      "type": "function"
    },
    {
      "inputs": [
        {
          "internalType": "address",
          "name": "nftAddress",
          "type": "address"
        },
        {
          "internalType": "uint256",
          "name": "tokenId",
          "type": "uint256"
        }
      ],
      "name": "getNFTOwner",
      "outputs": [
        {
          "internalType": "address",
          "name": "",
          "type": "address"
        }
      ],
      "stateMutability": "view",
      "type": "function"
    },
    {
      "inputs": [
        {
          "internalType": "string",
          "name": "_name",
          "type": "string"
        },
        {
          "internalType": "uint16",
          "name": "_feeRatio",
          "type": "uint16"
        },
        {
          "internalType": "address",
          "name": "_erc20Token",
          "type": "address"
        }
      ],
      "name": "initialize",
      "outputs": [],
      "stateMutability": "nonpayable",
      "type": "function"
    },
    {
      "inputs": [
        {
          "internalType": "address",
          "name": "_token",
          "type": "address"
        }
      ],
      "name": "isSupportedERC20",
      "outputs": [
        {
          "internalType": "bool",
          "name": "",
          "type": "bool"
        }
      ],
      "stateMutability": "view",
      "type": "function"
    },
    {
      "inputs": [
        {
          "internalType": "address",
          "name": "nftAddress",
          "type": "address"
        },
        {
          "internalType": "uint256",
          "name": "tokenId",
          "type": "uint256"
        },
        {
          "internalType": "uint256",
          "name": "price",
          "type": "uint256"
        }
      ],
      "name": "listNFT",
      "outputs": [],
      "stateMutability": "nonpayable",
      "type": "function"
    },
    {
      "inputs": [],
      "name": "name",
      "outputs": [
        {
          "internalType": "string",
          "name": "",
          "type": "string"
        }
      ],
      "stateMutability": "view",
      "type": "function"
    },
    {
      "inputs": [],
      "name": "owner",
      "outputs": [
        {
          "internalType": "address",
          "name": "",
          "type": "address"
        }
      ],
      "stateMutability": "view",
      "type": "function"
    },
    {
      "inputs": [],
      "name": "renounceOwnership",
      "outputs": [],
      "stateMutability": "nonpayable",
      "type": "function"
    },
    {
      "inputs": [
        {
          "internalType": "uint8",
          "name": "_feeRatio",
          "type": "uint8"
        }
      ],
      "name": "setFeeRatio",
      "outputs": [],
      "stateMutability": "nonpayable",
      "type": "function"
    },
    {
      "inputs": [
        {
          "internalType": "address",
          "name": "newOwner",
          "type": "address"
        }
      ],
      "name": "transferOwnership",
      "outputs": [],
      "stateMutability": "nonpayable",
      "type": "function"
    },
    {
      "inputs": [
        {
          "internalType": "address",
          "name": "nftAddress",
          "type": "address"
        },
        {
          "internalType": "uint256",
          "name": "tokenId",
          "type": "uint256"
        },
        {
          "internalType": "uint256",
          "name": "price",
          "type": "uint256"
        }
      ],
      "name": "updateListing",
      "outputs": [],
      "stateMutability": "nonpayable",
      "type": "function"
    }
  ],
  "bytecode": "0x60806040523480156200001157600080fd5b5033600073ffffffffffffffffffffffffffffffffffffffff168173ffffffffffffffffffffffffffffffffffffffff1603620000885760006040517f1e4fbdf70000000000000000000000000000000000000000000000000000000081526004016200007f9190620001a9565b60405180910390fd5b6200009981620000a060201b60201c565b50620001c6565b60008060009054906101000a900473ffffffffffffffffffffffffffffffffffffffff169050816000806101000a81548173ffffffffffffffffffffffffffffffffffffffff021916908373ffffffffffffffffffffffffffffffffffffffff1602179055508173ffffffffffffffffffffffffffffffffffffffff168173ffffffffffffffffffffffffffffffffffffffff167f8be0079c531659141344cd1fd0a4f28419497f9722a3daafe3b4186f6b6457e060405160405180910390a35050565b600073ffffffffffffffffffffffffffffffffffffffff82169050919050565b6000620001918262000164565b9050919050565b620001a38162000184565b82525050565b6000602082019050620001c0600083018462000198565b92915050565b612aff80620001d66000396000f3fe6080604052600436106100fe5760003560e01c8063715018a611610095578063b2ddee0611610064578063b2ddee0614610312578063bf00b6621461033b578063d3719f0414610364578063f2fde38b1461038d578063f772adf1146103b6576100fe565b8063715018a61461026a5780638da5cb5b14610281578063a1e0765a146102ac578063ad05f1b4146102e9576100fe565b8063259ca365116100d1578063259ca365146101bd5780632b1c15aa146101d957806341744dd414610202578063637dfb0c1461022d576100fe565b806306d783971461010357806306fdde03146101405780631464c45a1461016b5780631f756c8b14610194575b600080fd5b34801561010f57600080fd5b5061012a60048036038101906101259190611f2d565b6103df565b6040516101379190611f7c565b60405180910390f35b34801561014c57600080fd5b50610155610481565b6040516101629190612027565b60405180910390f35b34801561017757600080fd5b50610192600480360381019061018d9190612082565b61050f565b005b3480156101a057600080fd5b506101bb60048036038101906101b691906120af565b61053a565b005b6101d760048036038101906101d291906120dc565b6105d8565b005b3480156101e557600080fd5b5061020060048036038101906101fb91906120af565b6109c5565b005b34801561020e57600080fd5b50610217610b30565b604051610224919061214c565b60405180910390f35b34801561023957600080fd5b50610254600480360381019061024f9190611f2d565b610b44565b6040516102619190612176565b60405180910390f35b34801561027657600080fd5b5061027f610c4d565b005b34801561028d57600080fd5b50610296610c61565b6040516102a39190612176565b60405180910390f35b3480156102b857600080fd5b506102d360048036038101906102ce91906120af565b610c8a565b6040516102e091906121ac565b60405180910390f35b3480156102f557600080fd5b50610310600480360381019061030b91906121c7565b610da5565b005b34801561031e57600080fd5b5061033960048036038101906103349190611f2d565b61107d565b005b34801561034757600080fd5b50610362600480360381019061035d919061237b565b61128e565b005b34801561037057600080fd5b5061038b600480360381019061038691906120af565b61149b565b005b34801561039957600080fd5b506103b460048036038101906103af91906120af565b611658565b005b3480156103c257600080fd5b506103dd60048036038101906103d891906121c7565b6116de565b005b600082826000600160008473ffffffffffffffffffffffffffffffffffffffff1673ffffffffffffffffffffffffffffffffffffffff1681526020019081526020016000206000838152602001908152602001600020540361046d576040517f6407343b00000000000000000000000000000000000000000000000000000000815260040160405180910390fd5b6104778585611a3b565b9250505092915050565b6004805461048e90612419565b80601f01602080910402602001604051908101604052809291908181526020018280546104ba90612419565b80156105075780601f106104dc57610100808354040283529160200191610507565b820191906000526020600020905b8154815290600101906020018083116104ea57829003601f168201915b505050505081565b610517611b24565b8060ff16600560006101000a81548161ffff021916908361ffff16021790555050565b6000600360008373ffffffffffffffffffffffffffffffffffffffff1673ffffffffffffffffffffffffffffffffffffffff16815260200190815260200160002060006101000a81548160ff0219169083151502179055508073ffffffffffffffffffffffffffffffffffffffff167f97f6d876fa8b64c4db59c5678c321d158792b148b319a587ab2cfb8087b5124b60405160405180910390a250565b82826000600160008473ffffffffffffffffffffffffffffffffffffffff1673ffffffffffffffffffffffffffffffffffffffff16815260200190815260200160002060008381526020019081526020016000205403610664576040517f6407343b00000000000000000000000000000000000000000000000000000000815260040160405180910390fd5b8260011515600360008373ffffffffffffffffffffffffffffffffffffffff1673ffffffffffffffffffffffffffffffffffffffff16815260200190815260200160002060009054906101000a900460ff161515146106ef576040517fc8a08d6f00000000000000000000000000000000000000000000000000000000815260040160405180910390fd5b6000849050600087905060006107058989611a3b565b905060006107138a8a610b44565b90508073ffffffffffffffffffffffffffffffffffffffff163373ffffffffffffffffffffffffffffffffffffffff160361077a576040517f1d547fe300000000000000000000000000000000000000000000000000000000815260040160405180910390fd5b8273ffffffffffffffffffffffffffffffffffffffff1663f242432a82338c60016040518563ffffffff1660e01b81526004016107ba94939291906124c6565b600060405180830381600087803b1580156107d457600080fd5b505af11580156107e8573d6000803e3d6000fd5b5050505060006064600560009054906101000a900461ffff1661ffff1684610810919061254d565b61081a91906125be565b90506000818461082a91906125ef565b90508573ffffffffffffffffffffffffffffffffffffffff166323b872dd3385846040518463ffffffff1660e01b815260040161086993929190612623565b6020604051808303816000875af1158015610888573d6000803e3d6000fd5b505050506040513d601f19601f820116820180604052508101906108ac9190612686565b508573ffffffffffffffffffffffffffffffffffffffff166323b872dd3330856040518463ffffffff1660e01b81526004016108ea93929190612623565b6020604051808303816000875af1158015610909573d6000803e3d6000fd5b505050506040513d601f19601f8201168201806040525081019061092d9190612686565b50610939338d8d611bab565b8b73ffffffffffffffffffffffffffffffffffffffff168373ffffffffffffffffffffffffffffffffffffffff163373ffffffffffffffffffffffffffffffffffffffff167fd9649430e19f538d185680422e3ba050b3f91488133798e287a2f2365238f4838e886040516109af9291906126b3565b60405180910390a4505050505050505050505050565b6109cd611b24565b80600081905060008173ffffffffffffffffffffffffffffffffffffffff166370a08231306040518263ffffffff1660e01b8152600401610a0e9190612176565b602060405180830381865afa158015610a2b573d6000803e3d6000fd5b505050506040513d601f19601f82011682018060405250810190610a4f91906126f1565b1015610a90576040517f08c379a0000000000000000000000000000000000000000000000000000000008152600401610a879061276a565b60405180910390fd5b6001600360008573ffffffffffffffffffffffffffffffffffffffff1673ffffffffffffffffffffffffffffffffffffffff16815260200190815260200160002060006101000a81548160ff0219169083151502179055508273ffffffffffffffffffffffffffffffffffffffff167f135fa382eab99c8178b56314eb5b6dff1763d35fdb177c8332f18e0a4ff32e4f60405160405180910390a2505050565b600560009054906101000a900461ffff1681565b600082826000600160008473ffffffffffffffffffffffffffffffffffffffff1673ffffffffffffffffffffffffffffffffffffffff16815260200190815260200160002060008381526020019081526020016000205403610bd2576040517f6407343b00000000000000000000000000000000000000000000000000000000815260040160405180910390fd5b600260008673ffffffffffffffffffffffffffffffffffffffff1673ffffffffffffffffffffffffffffffffffffffff168152602001908152602001600020600085815260200190815260200160002060009054906101000a900473ffffffffffffffffffffffffffffffffffffffff169250505092915050565b610c55611b24565b610c5f6000611d91565b565b60008060009054906101000a900473ffffffffffffffffffffffffffffffffffffffff16905090565b600081600081905060008173ffffffffffffffffffffffffffffffffffffffff166370a08231306040518263ffffffff1660e01b8152600401610ccd9190612176565b602060405180830381865afa158015610cea573d6000803e3d6000fd5b505050506040513d601f19601f82011682018060405250810190610d0e91906126f1565b1015610d4f576040517f08c379a0000000000000000000000000000000000000000000000000000000008152600401610d469061276a565b60405180910390fd5b600360008573ffffffffffffffffffffffffffffffffffffffff1673ffffffffffffffffffffffffffffffffffffffff16815260200190815260200160002060009054906101000a900460ff1692505050919050565b82826000829050600060018273ffffffffffffffffffffffffffffffffffffffff1662fdd58e33866040518363ffffffff1660e01b8152600401610dea92919061278a565b602060405180830381865afa158015610e07573d6000803e3d6000fd5b505050506040513d601f19601f82011682018060405250810190610e2b91906126f1565b14905080610e65576040517f232706ee00000000000000000000000000000000000000000000000000000000815260040160405180910390fd5b6000600160008973ffffffffffffffffffffffffffffffffffffffff1673ffffffffffffffffffffffffffffffffffffffff16815260200190815260200160002060008881526020019081526020016000205414610eef576040517f694cc02c00000000000000000000000000000000000000000000000000000000815260040160405180910390fd5b60008503610f29576040517fa2b326dd00000000000000000000000000000000000000000000000000000000815260040160405180910390fd5b84600160008973ffffffffffffffffffffffffffffffffffffffff1673ffffffffffffffffffffffffffffffffffffffff16815260200190815260200160002060008881526020019081526020016000208190555033600260008973ffffffffffffffffffffffffffffffffffffffff1673ffffffffffffffffffffffffffffffffffffffff168152602001908152602001600020600088815260200190815260200160002060006101000a81548173ffffffffffffffffffffffffffffffffffffffff021916908373ffffffffffffffffffffffffffffffffffffffff1602179055508673ffffffffffffffffffffffffffffffffffffffff163373ffffffffffffffffffffffffffffffffffffffff167f7054ef1cb164a67317854b31762419b88c8735b5120294262a0c4d24fa8a29e0888860405161106c9291906126b3565b60405180910390a350505050505050565b81816000829050600060018273ffffffffffffffffffffffffffffffffffffffff1662fdd58e33866040518363ffffffff1660e01b81526004016110c292919061278a565b602060405180830381865afa1580156110df573d6000803e3d6000fd5b505050506040513d601f19601f8201168201806040525081019061110391906126f1565b1490508061113d576040517f232706ee00000000000000000000000000000000000000000000000000000000815260040160405180910390fd5b85856000600160008473ffffffffffffffffffffffffffffffffffffffff1673ffffffffffffffffffffffffffffffffffffffff168152602001908152602001600020600083815260200190815260200160002054036111c9576040517f6407343b00000000000000000000000000000000000000000000000000000000815260040160405180910390fd5b6000600160008a73ffffffffffffffffffffffffffffffffffffffff1673ffffffffffffffffffffffffffffffffffffffff1681526020019081526020016000206000898152602001908152602001600020819055508773ffffffffffffffffffffffffffffffffffffffff163373ffffffffffffffffffffffffffffffffffffffff167f061e64e10e5e57615a6fe38b48c81926f6999a2f5304d3e5e6b0d3cfac4865a58960405161127c9190611f7c565b60405180910390a35050505050505050565b6000611298611e55565b905060008160000160089054906101000a900460ff1615905060008260000160009054906101000a900467ffffffffffffffff1690506000808267ffffffffffffffff161480156112e65750825b9050600060018367ffffffffffffffff1614801561131b575060003073ffffffffffffffffffffffffffffffffffffffff163b145b905081158015611329575080155b15611360576040517ff92ee8a900000000000000000000000000000000000000000000000000000000815260040160405180910390fd5b60018560000160006101000a81548167ffffffffffffffff021916908367ffffffffffffffff16021790555083156113b05760018560000160086101000a81548160ff0219169083151502179055505b87600490816113bf9190612955565b5086600560006101000a81548161ffff021916908361ffff1602179055506001600360008873ffffffffffffffffffffffffffffffffffffffff1673ffffffffffffffffffffffffffffffffffffffff16815260200190815260200160002060006101000a81548160ff02191690831515021790555083156114915760008560000160086101000a81548160ff0219169083151502179055507fc7f505b2f371ae2175ee4913f4499e1f2633a7b5936321eed1cdaeb6115181d260016040516114889190612a6c565b60405180910390a15b5050505050505050565b6114a3611b24565b600081905060003073ffffffffffffffffffffffffffffffffffffffff16638da5cb5b6040518163ffffffff1660e01b8152600401602060405180830381865afa1580156114f5573d6000803e3d6000fd5b505050506040513d601f19601f820116820180604052508101906115199190612a9c565b905060008273ffffffffffffffffffffffffffffffffffffffff166370a08231306040518263ffffffff1660e01b81526004016115569190612176565b602060405180830381865afa158015611573573d6000803e3d6000fd5b505050506040513d601f19601f8201168201806040525081019061159791906126f1565b9050600081036115d3576040517f6290a72800000000000000000000000000000000000000000000000000000000815260040160405180910390fd5b8273ffffffffffffffffffffffffffffffffffffffff1663a9059cbb83836040518363ffffffff1660e01b815260040161160e92919061278a565b6020604051808303816000875af115801561162d573d6000803e3d6000fd5b505050506040513d601f19601f820116820180604052508101906116519190612686565b5050505050565b611660611b24565b600073ffffffffffffffffffffffffffffffffffffffff168173ffffffffffffffffffffffffffffffffffffffff16036116d25760006040517f1e4fbdf70000000000000000000000000000000000000000000000000000000081526004016116c99190612176565b60405180910390fd5b6116db81611d91565b50565b82826000829050600060018273ffffffffffffffffffffffffffffffffffffffff1662fdd58e33866040518363ffffffff1660e01b815260040161172392919061278a565b602060405180830381865afa158015611740573d6000803e3d6000fd5b505050506040513d601f19601f8201168201806040525081019061176491906126f1565b1490508061179e576040517f232706ee00000000000000000000000000000000000000000000000000000000815260040160405180910390fd5b86866000600160008473ffffffffffffffffffffffffffffffffffffffff1673ffffffffffffffffffffffffffffffffffffffff1681526020019081526020016000206000838152602001908152602001600020540361182a576040517f6407343b00000000000000000000000000000000000000000000000000000000815260040160405180910390fd5b6000899050600060018273ffffffffffffffffffffffffffffffffffffffff1662fdd58e338d6040518363ffffffff1660e01b815260040161186d92919061278a565b602060405180830381865afa15801561188a573d6000803e3d6000fd5b505050506040513d601f19601f820116820180604052508101906118ae91906126f1565b149050806118e8576040517f232706ee00000000000000000000000000000000000000000000000000000000815260040160405180910390fd5b6000600160008d73ffffffffffffffffffffffffffffffffffffffff1673ffffffffffffffffffffffffffffffffffffffff16815260200190815260200160002060008c81526020019081526020016000205403611972576040517f6407343b00000000000000000000000000000000000000000000000000000000815260040160405180910390fd5b88600160008d73ffffffffffffffffffffffffffffffffffffffff1673ffffffffffffffffffffffffffffffffffffffff16815260200190815260200160002060008c8152602001908152602001600020819055508a73ffffffffffffffffffffffffffffffffffffffff163373ffffffffffffffffffffffffffffffffffffffff167f88a14f938c07a2afe2cc96e2b04a435b661cecc772d130fcc8f8070bee3d3b548c8c604051611a269291906126b3565b60405180910390a35050505050505050505050565b600082826000600160008473ffffffffffffffffffffffffffffffffffffffff1673ffffffffffffffffffffffffffffffffffffffff16815260200190815260200160002060008381526020019081526020016000205403611ac9576040517f6407343b00000000000000000000000000000000000000000000000000000000815260040160405180910390fd5b600160008673ffffffffffffffffffffffffffffffffffffffff1673ffffffffffffffffffffffffffffffffffffffff1681526020019081526020016000206000858152602001908152602001600020549250505092915050565b611b2c611e7d565b73ffffffffffffffffffffffffffffffffffffffff16611b4a610c61565b73ffffffffffffffffffffffffffffffffffffffff1614611ba957611b6d611e7d565b6040517f118cdaa7000000000000000000000000000000000000000000000000000000008152600401611ba09190612176565b60405180910390fd5b565b81816000829050600060018273ffffffffffffffffffffffffffffffffffffffff1662fdd58e33866040518363ffffffff1660e01b8152600401611bf092919061278a565b602060405180830381865afa158015611c0d573d6000803e3d6000fd5b505050506040513d601f19601f82011682018060405250810190611c3191906126f1565b14905080611c6b576040517f232706ee00000000000000000000000000000000000000000000000000000000815260040160405180910390fd5b85856000600160008473ffffffffffffffffffffffffffffffffffffffff1673ffffffffffffffffffffffffffffffffffffffff16815260200190815260200160002060008381526020019081526020016000205403611cf7576040517f6407343b00000000000000000000000000000000000000000000000000000000815260040160405180910390fd5b88600260008a73ffffffffffffffffffffffffffffffffffffffff1673ffffffffffffffffffffffffffffffffffffffff168152602001908152602001600020600089815260200190815260200160002060006101000a81548173ffffffffffffffffffffffffffffffffffffffff021916908373ffffffffffffffffffffffffffffffffffffffff160217905550505050505050505050565b60008060009054906101000a900473ffffffffffffffffffffffffffffffffffffffff169050816000806101000a81548173ffffffffffffffffffffffffffffffffffffffff021916908373ffffffffffffffffffffffffffffffffffffffff1602179055508173ffffffffffffffffffffffffffffffffffffffff168173ffffffffffffffffffffffffffffffffffffffff167f8be0079c531659141344cd1fd0a4f28419497f9722a3daafe3b4186f6b6457e060405160405180910390a35050565b60007ff0c57e16840df040f15088dc2f81fe391c3923bec73e23a9662efc9c229c6a00905090565b600033905090565b6000604051905090565b600080fd5b600080fd5b600073ffffffffffffffffffffffffffffffffffffffff82169050919050565b6000611ec482611e99565b9050919050565b611ed481611eb9565b8114611edf57600080fd5b50565b600081359050611ef181611ecb565b92915050565b6000819050919050565b611f0a81611ef7565b8114611f1557600080fd5b50565b600081359050611f2781611f01565b92915050565b60008060408385031215611f4457611f43611e8f565b5b6000611f5285828601611ee2565b9250506020611f6385828601611f18565b9150509250929050565b611f7681611ef7565b82525050565b6000602082019050611f916000830184611f6d565b92915050565b600081519050919050565b600082825260208201905092915050565b60005b83811015611fd1578082015181840152602081019050611fb6565b60008484015250505050565b6000601f19601f8301169050919050565b6000611ff982611f97565b6120038185611fa2565b9350612013818560208601611fb3565b61201c81611fdd565b840191505092915050565b600060208201905081810360008301526120418184611fee565b905092915050565b600060ff82169050919050565b61205f81612049565b811461206a57600080fd5b50565b60008135905061207c81612056565b92915050565b60006020828403121561209857612097611e8f565b5b60006120a68482850161206d565b91505092915050565b6000602082840312156120c5576120c4611e8f565b5b60006120d384828501611ee2565b91505092915050565b6000806000606084860312156120f5576120f4611e8f565b5b600061210386828701611ee2565b935050602061211486828701611f18565b925050604061212586828701611ee2565b9150509250925092565b600061ffff82169050919050565b6121468161212f565b82525050565b6000602082019050612161600083018461213d565b92915050565b61217081611eb9565b82525050565b600060208201905061218b6000830184612167565b92915050565b60008115159050919050565b6121a681612191565b82525050565b60006020820190506121c1600083018461219d565b92915050565b6000806000606084860312156121e0576121df611e8f565b5b60006121ee86828701611ee2565b93505060206121ff86828701611f18565b925050604061221086828701611f18565b9150509250925092565b600080fd5b600080fd5b7f4e487b7100000000000000000000000000000000000000000000000000000000600052604160045260246000fd5b61225c82611fdd565b810181811067ffffffffffffffff8211171561227b5761227a612224565b5b80604052505050565b600061228e611e85565b905061229a8282612253565b919050565b600067ffffffffffffffff8211156122ba576122b9612224565b5b6122c382611fdd565b9050602081019050919050565b82818337600083830152505050565b60006122f26122ed8461229f565b612284565b90508281526020810184848401111561230e5761230d61221f565b5b6123198482856122d0565b509392505050565b600082601f8301126123365761233561221a565b5b81356123468482602086016122df565b91505092915050565b6123588161212f565b811461236357600080fd5b50565b6000813590506123758161234f565b92915050565b60008060006060848603121561239457612393611e8f565b5b600084013567ffffffffffffffff8111156123b2576123b1611e94565b5b6123be86828701612321565b93505060206123cf86828701612366565b92505060406123e086828701611ee2565b9150509250925092565b7f4e487b7100000000000000000000000000000000000000000000000000000000600052602260045260246000fd5b6000600282049050600182168061243157607f821691505b602082108103612444576124436123ea565b5b50919050565b6000819050919050565b6000819050919050565b600061247961247461246f8461244a565b612454565b611ef7565b9050919050565b6124898161245e565b82525050565b600082825260208201905092915050565b50565b60006124b060008361248f565b91506124bb826124a0565b600082019050919050565b600060a0820190506124db6000830187612167565b6124e86020830186612167565b6124f56040830185611f6d565b6125026060830184612480565b8181036080830152612513816124a3565b905095945050505050565b7f4e487b7100000000000000000000000000000000000000000000000000000000600052601160045260246000fd5b600061255882611ef7565b915061256383611ef7565b925082820261257181611ef7565b915082820484148315176125885761258761251e565b5b5092915050565b7f4e487b7100000000000000000000000000000000000000000000000000000000600052601260045260246000fd5b60006125c982611ef7565b91506125d483611ef7565b9250826125e4576125e361258f565b5b828204905092915050565b60006125fa82611ef7565b915061260583611ef7565b925082820390508181111561261d5761261c61251e565b5b92915050565b60006060820190506126386000830186612167565b6126456020830185612167565b6126526040830184611f6d565b949350505050565b61266381612191565b811461266e57600080fd5b50565b6000815190506126808161265a565b92915050565b60006020828403121561269c5761269b611e8f565b5b60006126aa84828501612671565b91505092915050565b60006040820190506126c86000830185611f6d565b6126d56020830184611f6d565b9392505050565b6000815190506126eb81611f01565b92915050565b60006020828403121561270757612706611e8f565b5b6000612715848285016126dc565b91505092915050565b7f41646472657373206973206e6f7420616e20657263323020746f6b656e000000600082015250565b6000612754601d83611fa2565b915061275f8261271e565b602082019050919050565b6000602082019050818103600083015261278381612747565b9050919050565b600060408201905061279f6000830185612167565b6127ac6020830184611f6d565b9392505050565b60008190508160005260206000209050919050565b60006020601f8301049050919050565b600082821b905092915050565b6000600883026128157fffffffffffffffffffffffffffffffffffffffffffffffffffffffffffffffff826127d8565b61281f86836127d8565b95508019841693508086168417925050509392505050565b600061285261284d61284884611ef7565b612454565b611ef7565b9050919050565b6000819050919050565b61286c83612837565b61288061287882612859565b8484546127e5565b825550505050565b600090565b612895612888565b6128a0818484612863565b505050565b5b818110156128c4576128b960008261288d565b6001810190506128a6565b5050565b601f821115612909576128da816127b3565b6128e3846127c8565b810160208510156128f2578190505b6129066128fe856127c8565b8301826128a5565b50505b505050565b600082821c905092915050565b600061292c6000198460080261290e565b1980831691505092915050565b6000612945838361291b565b9150826002028217905092915050565b61295e82611f97565b67ffffffffffffffff81111561297757612976612224565b5b6129818254612419565b61298c8282856128c8565b600060209050601f8311600181146129bf57600084156129ad578287015190505b6129b78582612939565b865550612a1f565b601f1984166129cd866127b3565b60005b828110156129f5578489015182556001820191506020850194506020810190506129d0565b86831015612a125784890151612a0e601f89168261291b565b8355505b6001600288020188555050505b505050505050565b600067ffffffffffffffff82169050919050565b6000612a56612a51612a4c8461244a565b612454565b612a27565b9050919050565b612a6681612a3b565b82525050565b6000602082019050612a816000830184612a5d565b92915050565b600081519050612a9681611ecb565b92915050565b600060208284031215612ab257612ab1611e8f565b5b6000612ac084828501612a87565b9150509291505056fea264697066735822122027b15e1c3170030b74cd015716140d593ffaa6cdc2ab9c134ab1e8b654ce545b64736f6c63430008180033",
  "linkReferences": {},
  "deployedLinkReferences": {}
}