{
  "_format": "hh-sol-artifact-1",
  "contractName": "NFTMarketplaceV2",
  "sourceName": "contracts/NFTMarketplaceV2.sol",
  "abi": [
    {
      "inputs": [],
      "name": "CannotBuyOwnNFT",
      "type": "error"
    },
    {
      "inputs": [],
      "name": "InvalidInitialization",
      "type": "error"
    },
    {
      "inputs": [],
      "name": "NFTAlreadyListed",
      "type": "error"
    },
    {
      "inputs": [],
      "name": "NFTNotListed",
      "type": "error"
    },
    {
      "inputs": [],
      "name": "NoFeeToWithdraw",
      "type": "error"
    },
    {
      "inputs": [],
      "name": "NotInitializing",
      "type": "error"
    },
    {
      "inputs": [],
      "name": "NotOwnNFT",
      "type": "error"
    },
    {
      "inputs": [],
      "name": "NotSupportedToken",
      "type": "error"
    },
    {
      "inputs": [
        {
          "internalType": "address",
          "name": "owner",
          "type": "address"
        }
      ],
      "name": "OwnableInvalidOwner",
      "type": "error"
    },
    {
      "inputs": [
        {
          "internalType": "address",
          "name": "account",
          "type": "address"
        }
      ],
      "name": "OwnableUnauthorizedAccount",
      "type": "error"
    },
    {
      "inputs": [],
      "name": "ZeroPriceNotAllowed",
      "type": "error"
    },
    {
      "anonymous": false,
      "inputs": [
        {
          "indexed": true,
          "internalType": "address",
          "name": "buyer",
          "type": "address"
        },
        {
          "indexed": true,
          "internalType": "address",
          "name": "seller",
          "type": "address"
        },
        {
          "indexed": true,
          "internalType": "address",
          "name": "nftAddress",
          "type": "address"
        },
        {
          "indexed": false,
          "internalType": "uint256",
          "name": "tokenId",
          "type": "uint256"
        },
        {
          "indexed": false,
          "internalType": "uint256",
          "name": "price",
          "type": "uint256"
        }
      ],
      "name": "BuyNFT",
      "type": "event"
    },
    {
      "anonymous": false,
      "inputs": [
        {
          "indexed": true,
          "internalType": "address",
          "name": "owner",
          "type": "address"
        },
        {
          "indexed": true,
          "internalType": "address",
          "name": "nftAddress",
          "type": "address"
        },
        {
          "indexed": false,
          "internalType": "uint256",
          "name": "tokenId",
          "type": "uint256"
        }
      ],
      "name": "CancelListing",
      "type": "event"
    },
    {
      "anonymous": false,
      "inputs": [
        {
          "indexed": false,
          "internalType": "uint64",
          "name": "version",
          "type": "uint64"
        }
      ],
      "name": "Initialized",
      "type": "event"
    },
    {
      "anonymous": false,
      "inputs": [
        {
          "indexed": true,
          "internalType": "address",
          "name": "owner",
          "type": "address"
        },
        {
          "indexed": true,
          "internalType": "address",
          "name": "nftAddress",
          "type": "address"
        },
        {
          "indexed": false,
          "internalType": "uint256",
          "name": "tokenId",
          "type": "uint256"
        },
        {
          "indexed": false,
          "internalType": "uint256",
          "name": "price",
          "type": "uint256"
        }
      ],
      "name": "ListNFT",
      "type": "event"
    },
    {
      "anonymous": false,
      "inputs": [
        {
          "indexed": true,
          "internalType": "address",
          "name": "previousOwner",
          "type": "address"
        },
        {
          "indexed": true,
          "internalType": "address",
          "name": "newOwner",
          "type": "address"
        }
      ],
      "name": "OwnershipTransferred",
      "type": "event"
    },
    {
      "anonymous": false,
      "inputs": [
        {
          "indexed": true,
          "internalType": "address",
          "name": "token",
          "type": "address"
        }
      ],
      "name": "UnWhitelistToken",
      "type": "event"
    },
    {
      "anonymous": false,
      "inputs": [
        {
          "indexed": true,
          "internalType": "address",
          "name": "owner",
          "type": "address"
        },
        {
          "indexed": true,
          "internalType": "address",
          "name": "nftAddress",
          "type": "address"
        },
        {
          "indexed": false,
          "internalType": "uint256",
          "name": "tokenId",
          "type": "uint256"
        },
        {
          "indexed": false,
          "internalType": "uint256",
          "name": "price",
          "type": "uint256"
        }
      ],
      "name": "UpdateListing",
      "type": "event"
    },
    {
      "anonymous": false,
      "inputs": [
        {
          "indexed": true,
          "internalType": "address",
          "name": "token",
          "type": "address"
        }
      ],
      "name": "WhitelistToken",
      "type": "event"
    },
    {
      "inputs": [
        {
          "internalType": "address",
          "name": "_token",
          "type": "address"
        }
      ],
      "name": "AddTokenToWhitelist",
      "outputs": [],
      "stateMutability": "nonpayable",
      "type": "function"
    },
    {
      "inputs": [
        {
          "internalType": "address",
          "name": "_token",
          "type": "address"
        }
      ],
      "name": "RemoveFromWhitelist",
      "outputs": [],
      "stateMutability": "nonpayable",
      "type": "function"
    },
    {
      "inputs": [
        {
          "internalType": "address",
          "name": "_token",
          "type": "address"
        }
      ],
      "name": "WithdrawFees",
      "outputs": [],
      "stateMutability": "nonpayable",
      "type": "function"
    },
    {
      "inputs": [
        {
          "internalType": "address",
          "name": "nftAddress",
          "type": "address"
        },
        {
          "internalType": "uint256",
          "name": "tokenId",
          "type": "uint256"
        },
        {
          "internalType": "address",
          "name": "paymentToken",
          "type": "address"
        }
      ],
      "name": "buyItem",
      "outputs": [],
      "stateMutability": "payable",
      "type": "function"
    },
    {
      "inputs": [
        {
          "internalType": "address",
          "name": "nftAddress",
          "type": "address"
        },
        {
          "internalType": "uint256",
          "name": "tokenId",
          "type": "uint256"
        }
      ],
      "name": "cancelListing",
      "outputs": [],
      "stateMutability": "nonpayable",
      "type": "function"
    },
    {
      "inputs": [],
      "name": "feeRatio",
      "outputs": [
        {
          "internalType": "uint16",
          "name": "",
          "type": "uint16"
        }
      ],
      "stateMutability": "view",
      "type": "function"
    },
    {
      "inputs": [
        {
          "internalType": "address",
          "name": "nftAddress",
          "type": "address"
        },
        {
          "internalType": "uint256",
          "name": "tokenId",
          "type": "uint256"
        }
      ],
      "name": "getListingPrice",
      "outputs": [
        {
          "internalType": "uint256",
          "name": "",
          "type": "uint256"
        }
      ],
      "stateMutability": "view",
      "type": "function"
    },
    {
      "inputs": [
        {
          "internalType": "address",
          "name": "nftAddress",
          "type": "address"
        },
        {
          "internalType": "uint256",
          "name": "tokenId",
          "type": "uint256"
        }
      ],
      "name": "getNFTOwner",
      "outputs": [
        {
          "internalType": "address",
          "name": "",
          "type": "address"
        }
      ],
      "stateMutability": "view",
      "type": "function"
    },
    {
      "inputs": [
        {
          "internalType": "string",
          "name": "_name",
          "type": "string"
        },
        {
          "internalType": "uint16",
          "name": "_feeRatio",
          "type": "uint16"
        },
        {
          "internalType": "address",
          "name": "_erc20Token",
          "type": "address"
        }
      ],
      "name": "initialize",
      "outputs": [],
      "stateMutability": "nonpayable",
      "type": "function"
    },
    {
      "inputs": [
        {
          "internalType": "address",
          "name": "_token",
          "type": "address"
        }
      ],
      "name": "isSupportedERC20",
      "outputs": [
        {
          "internalType": "bool",
          "name": "",
          "type": "bool"
        }
      ],
      "stateMutability": "view",
      "type": "function"
    },
    {
      "inputs": [
        {
          "internalType": "address",
          "name": "nftAddress",
          "type": "address"
        },
        {
          "internalType": "uint256",
          "name": "tokenId",
          "type": "uint256"
        },
        {
          "internalType": "uint256",
          "name": "price",
          "type": "uint256"
        }
      ],
      "name": "listNFT",
      "outputs": [],
      "stateMutability": "nonpayable",
      "type": "function"
    },
    {
      "inputs": [],
      "name": "name",
      "outputs": [
        {
          "internalType": "string",
          "name": "",
          "type": "string"
        }
      ],
      "stateMutability": "view",
      "type": "function"
    },
    {
      "inputs": [],
      "name": "owner",
      "outputs": [
        {
          "internalType": "address",
          "name": "",
          "type": "address"
        }
      ],
      "stateMutability": "view",
      "type": "function"
    },
    {
      "inputs": [],
      "name": "renounceOwnership",
      "outputs": [],
      "stateMutability": "nonpayable",
      "type": "function"
    },
    {
      "inputs": [
        {
          "internalType": "uint8",
          "name": "_feeRatio",
          "type": "uint8"
        }
      ],
      "name": "setFeeRatio",
      "outputs": [],
      "stateMutability": "nonpayable",
      "type": "function"
    },
    {
      "inputs": [
        {
          "internalType": "string",
          "name": "_name",
          "type": "string"
        }
      ],
      "name": "setName",
      "outputs": [],
      "stateMutability": "nonpayable",
      "type": "function"
    },
    {
      "inputs": [
        {
          "internalType": "address",
          "name": "newOwner",
          "type": "address"
        }
      ],
      "name": "transferOwnership",
      "outputs": [],
      "stateMutability": "nonpayable",
      "type": "function"
    },
    {
      "inputs": [
        {
          "internalType": "address",
          "name": "nftAddress",
          "type": "address"
        },
        {
          "internalType": "uint256",
          "name": "tokenId",
          "type": "uint256"
        },
        {
          "internalType": "uint256",
          "name": "price",
          "type": "uint256"
        }
      ],
      "name": "updateListing",
      "outputs": [],
      "stateMutability": "nonpayable",
      "type": "function"
    }
  ],
  "bytecode": "0x60806040523480156200001157600080fd5b5033600073ffffffffffffffffffffffffffffffffffffffff168173ffffffffffffffffffffffffffffffffffffffff1603620000885760006040517f1e4fbdf70000000000000000000000000000000000000000000000000000000081526004016200007f9190620001a9565b60405180910390fd5b6200009981620000a060201b60201c565b50620001c6565b60008060009054906101000a900473ffffffffffffffffffffffffffffffffffffffff169050816000806101000a81548173ffffffffffffffffffffffffffffffffffffffff021916908373ffffffffffffffffffffffffffffffffffffffff1602179055508173ffffffffffffffffffffffffffffffffffffffff168173ffffffffffffffffffffffffffffffffffffffff167f8be0079c531659141344cd1fd0a4f28419497f9722a3daafe3b4186f6b6457e060405160405180910390a35050565b600073ffffffffffffffffffffffffffffffffffffffff82169050919050565b6000620001918262000164565b9050919050565b620001a38162000184565b82525050565b6000602082019050620001c0600083018462000198565b92915050565b612b8f80620001d66000396000f3fe6080604052600436106101095760003560e01c80638da5cb5b11610095578063bf00b66211610064578063bf00b66214610346578063c47f00271461036f578063d3719f0414610398578063f2fde38b146103c1578063f772adf1146103ea57610109565b80638da5cb5b1461028c578063a1e0765a146102b7578063ad05f1b4146102f4578063b2ddee061461031d57610109565b8063259ca365116100dc578063259ca365146101c85780632b1c15aa146101e457806341744dd41461020d578063637dfb0c14610238578063715018a61461027557610109565b806306d783971461010e57806306fdde031461014b5780631464c45a146101765780631f756c8b1461019f575b600080fd5b34801561011a57600080fd5b5061013560048036038101906101309190611f74565b610413565b6040516101429190611fc3565b60405180910390f35b34801561015757600080fd5b506101606104b5565b60405161016d919061206e565b60405180910390f35b34801561018257600080fd5b5061019d600480360381019061019891906120c9565b610543565b005b3480156101ab57600080fd5b506101c660048036038101906101c191906120f6565b61056e565b005b6101e260048036038101906101dd9190612123565b61060c565b005b3480156101f057600080fd5b5061020b600480360381019061020691906120f6565b6109f9565b005b34801561021957600080fd5b50610222610b64565b60405161022f9190612193565b60405180910390f35b34801561024457600080fd5b5061025f600480360381019061025a9190611f74565b610b78565b60405161026c91906121bd565b60405180910390f35b34801561028157600080fd5b5061028a610c81565b005b34801561029857600080fd5b506102a1610c95565b6040516102ae91906121bd565b60405180910390f35b3480156102c357600080fd5b506102de60048036038101906102d991906120f6565b610cbe565b6040516102eb91906121f3565b60405180910390f35b34801561030057600080fd5b5061031b6004803603810190610316919061220e565b610dd9565b005b34801561032957600080fd5b50610344600480360381019061033f9190611f74565b6110b1565b005b34801561035257600080fd5b5061036d600480360381019061036891906123c2565b6112c2565b005b34801561037b57600080fd5b5061039660048036038101906103919190612431565b6114cf565b005b3480156103a457600080fd5b506103bf60048036038101906103ba91906120f6565b6114e2565b005b3480156103cd57600080fd5b506103e860048036038101906103e391906120f6565b61169f565b005b3480156103f657600080fd5b50610411600480360381019061040c919061220e565b611725565b005b600082826000600160008473ffffffffffffffffffffffffffffffffffffffff1673ffffffffffffffffffffffffffffffffffffffff168152602001908152602001600020600083815260200190815260200160002054036104a1576040517f6407343b00000000000000000000000000000000000000000000000000000000815260040160405180910390fd5b6104ab8585611a82565b9250505092915050565b600480546104c2906124a9565b80601f01602080910402602001604051908101604052809291908181526020018280546104ee906124a9565b801561053b5780601f106105105761010080835404028352916020019161053b565b820191906000526020600020905b81548152906001019060200180831161051e57829003601f168201915b505050505081565b61054b611b6b565b8060ff16600560006101000a81548161ffff021916908361ffff16021790555050565b6000600360008373ffffffffffffffffffffffffffffffffffffffff1673ffffffffffffffffffffffffffffffffffffffff16815260200190815260200160002060006101000a81548160ff0219169083151502179055508073ffffffffffffffffffffffffffffffffffffffff167f97f6d876fa8b64c4db59c5678c321d158792b148b319a587ab2cfb8087b5124b60405160405180910390a250565b82826000600160008473ffffffffffffffffffffffffffffffffffffffff1673ffffffffffffffffffffffffffffffffffffffff16815260200190815260200160002060008381526020019081526020016000205403610698576040517f6407343b00000000000000000000000000000000000000000000000000000000815260040160405180910390fd5b8260011515600360008373ffffffffffffffffffffffffffffffffffffffff1673ffffffffffffffffffffffffffffffffffffffff16815260200190815260200160002060009054906101000a900460ff16151514610723576040517fc8a08d6f00000000000000000000000000000000000000000000000000000000815260040160405180910390fd5b6000849050600087905060006107398989611a82565b905060006107478a8a610b78565b90508073ffffffffffffffffffffffffffffffffffffffff163373ffffffffffffffffffffffffffffffffffffffff16036107ae576040517f1d547fe300000000000000000000000000000000000000000000000000000000815260040160405180910390fd5b8273ffffffffffffffffffffffffffffffffffffffff1663f242432a82338c60016040518563ffffffff1660e01b81526004016107ee9493929190612556565b600060405180830381600087803b15801561080857600080fd5b505af115801561081c573d6000803e3d6000fd5b5050505060006064600560009054906101000a900461ffff1661ffff168461084491906125dd565b61084e919061264e565b90506000818461085e919061267f565b90508573ffffffffffffffffffffffffffffffffffffffff166323b872dd3385846040518463ffffffff1660e01b815260040161089d939291906126b3565b6020604051808303816000875af11580156108bc573d6000803e3d6000fd5b505050506040513d601f19601f820116820180604052508101906108e09190612716565b508573ffffffffffffffffffffffffffffffffffffffff166323b872dd3330856040518463ffffffff1660e01b815260040161091e939291906126b3565b6020604051808303816000875af115801561093d573d6000803e3d6000fd5b505050506040513d601f19601f820116820180604052508101906109619190612716565b5061096d338d8d611bf2565b8b73ffffffffffffffffffffffffffffffffffffffff168373ffffffffffffffffffffffffffffffffffffffff163373ffffffffffffffffffffffffffffffffffffffff167fd9649430e19f538d185680422e3ba050b3f91488133798e287a2f2365238f4838e886040516109e3929190612743565b60405180910390a4505050505050505050505050565b610a01611b6b565b80600081905060008173ffffffffffffffffffffffffffffffffffffffff166370a08231306040518263ffffffff1660e01b8152600401610a4291906121bd565b602060405180830381865afa158015610a5f573d6000803e3d6000fd5b505050506040513d601f19601f82011682018060405250810190610a839190612781565b1015610ac4576040517f08c379a0000000000000000000000000000000000000000000000000000000008152600401610abb906127fa565b60405180910390fd5b6001600360008573ffffffffffffffffffffffffffffffffffffffff1673ffffffffffffffffffffffffffffffffffffffff16815260200190815260200160002060006101000a81548160ff0219169083151502179055508273ffffffffffffffffffffffffffffffffffffffff167f135fa382eab99c8178b56314eb5b6dff1763d35fdb177c8332f18e0a4ff32e4f60405160405180910390a2505050565b600560009054906101000a900461ffff1681565b600082826000600160008473ffffffffffffffffffffffffffffffffffffffff1673ffffffffffffffffffffffffffffffffffffffff16815260200190815260200160002060008381526020019081526020016000205403610c06576040517f6407343b00000000000000000000000000000000000000000000000000000000815260040160405180910390fd5b600260008673ffffffffffffffffffffffffffffffffffffffff1673ffffffffffffffffffffffffffffffffffffffff168152602001908152602001600020600085815260200190815260200160002060009054906101000a900473ffffffffffffffffffffffffffffffffffffffff169250505092915050565b610c89611b6b565b610c936000611dd8565b565b60008060009054906101000a900473ffffffffffffffffffffffffffffffffffffffff16905090565b600081600081905060008173ffffffffffffffffffffffffffffffffffffffff166370a08231306040518263ffffffff1660e01b8152600401610d0191906121bd565b602060405180830381865afa158015610d1e573d6000803e3d6000fd5b505050506040513d601f19601f82011682018060405250810190610d429190612781565b1015610d83576040517f08c379a0000000000000000000000000000000000000000000000000000000008152600401610d7a906127fa565b60405180910390fd5b600360008573ffffffffffffffffffffffffffffffffffffffff1673ffffffffffffffffffffffffffffffffffffffff16815260200190815260200160002060009054906101000a900460ff1692505050919050565b82826000829050600060018273ffffffffffffffffffffffffffffffffffffffff1662fdd58e33866040518363ffffffff1660e01b8152600401610e1e92919061281a565b602060405180830381865afa158015610e3b573d6000803e3d6000fd5b505050506040513d601f19601f82011682018060405250810190610e5f9190612781565b14905080610e99576040517f232706ee00000000000000000000000000000000000000000000000000000000815260040160405180910390fd5b6000600160008973ffffffffffffffffffffffffffffffffffffffff1673ffffffffffffffffffffffffffffffffffffffff16815260200190815260200160002060008881526020019081526020016000205414610f23576040517f694cc02c00000000000000000000000000000000000000000000000000000000815260040160405180910390fd5b60008503610f5d576040517fa2b326dd00000000000000000000000000000000000000000000000000000000815260040160405180910390fd5b84600160008973ffffffffffffffffffffffffffffffffffffffff1673ffffffffffffffffffffffffffffffffffffffff16815260200190815260200160002060008881526020019081526020016000208190555033600260008973ffffffffffffffffffffffffffffffffffffffff1673ffffffffffffffffffffffffffffffffffffffff168152602001908152602001600020600088815260200190815260200160002060006101000a81548173ffffffffffffffffffffffffffffffffffffffff021916908373ffffffffffffffffffffffffffffffffffffffff1602179055508673ffffffffffffffffffffffffffffffffffffffff163373ffffffffffffffffffffffffffffffffffffffff167f7054ef1cb164a67317854b31762419b88c8735b5120294262a0c4d24fa8a29e088886040516110a0929190612743565b60405180910390a350505050505050565b81816000829050600060018273ffffffffffffffffffffffffffffffffffffffff1662fdd58e33866040518363ffffffff1660e01b81526004016110f692919061281a565b602060405180830381865afa158015611113573d6000803e3d6000fd5b505050506040513d601f19601f820116820180604052508101906111379190612781565b14905080611171576040517f232706ee00000000000000000000000000000000000000000000000000000000815260040160405180910390fd5b85856000600160008473ffffffffffffffffffffffffffffffffffffffff1673ffffffffffffffffffffffffffffffffffffffff168152602001908152602001600020600083815260200190815260200160002054036111fd576040517f6407343b00000000000000000000000000000000000000000000000000000000815260040160405180910390fd5b6000600160008a73ffffffffffffffffffffffffffffffffffffffff1673ffffffffffffffffffffffffffffffffffffffff1681526020019081526020016000206000898152602001908152602001600020819055508773ffffffffffffffffffffffffffffffffffffffff163373ffffffffffffffffffffffffffffffffffffffff167f061e64e10e5e57615a6fe38b48c81926f6999a2f5304d3e5e6b0d3cfac4865a5896040516112b09190611fc3565b60405180910390a35050505050505050565b60006112cc611e9c565b905060008160000160089054906101000a900460ff1615905060008260000160009054906101000a900467ffffffffffffffff1690506000808267ffffffffffffffff1614801561131a5750825b9050600060018367ffffffffffffffff1614801561134f575060003073ffffffffffffffffffffffffffffffffffffffff163b145b90508115801561135d575080155b15611394576040517ff92ee8a900000000000000000000000000000000000000000000000000000000815260040160405180910390fd5b60018560000160006101000a81548167ffffffffffffffff021916908367ffffffffffffffff16021790555083156113e45760018560000160086101000a81548160ff0219169083151502179055505b87600490816113f391906129e5565b5086600560006101000a81548161ffff021916908361ffff1602179055506001600360008873ffffffffffffffffffffffffffffffffffffffff1673ffffffffffffffffffffffffffffffffffffffff16815260200190815260200160002060006101000a81548160ff02191690831515021790555083156114c55760008560000160086101000a81548160ff0219169083151502179055507fc7f505b2f371ae2175ee4913f4499e1f2633a7b5936321eed1cdaeb6115181d260016040516114bc9190612afc565b60405180910390a15b5050505050505050565b80600490816114de91906129e5565b5050565b6114ea611b6b565b600081905060003073ffffffffffffffffffffffffffffffffffffffff16638da5cb5b6040518163ffffffff1660e01b8152600401602060405180830381865afa15801561153c573d6000803e3d6000fd5b505050506040513d601f19601f820116820180604052508101906115609190612b2c565b905060008273ffffffffffffffffffffffffffffffffffffffff166370a08231306040518263ffffffff1660e01b815260040161159d91906121bd565b602060405180830381865afa1580156115ba573d6000803e3d6000fd5b505050506040513d601f19601f820116820180604052508101906115de9190612781565b90506000810361161a576040517f6290a72800000000000000000000000000000000000000000000000000000000815260040160405180910390fd5b8273ffffffffffffffffffffffffffffffffffffffff1663a9059cbb83836040518363ffffffff1660e01b815260040161165592919061281a565b6020604051808303816000875af1158015611674573d6000803e3d6000fd5b505050506040513d601f19601f820116820180604052508101906116989190612716565b5050505050565b6116a7611b6b565b600073ffffffffffffffffffffffffffffffffffffffff168173ffffffffffffffffffffffffffffffffffffffff16036117195760006040517f1e4fbdf700000000000000000000000000000000000000000000000000000000815260040161171091906121bd565b60405180910390fd5b61172281611dd8565b50565b82826000829050600060018273ffffffffffffffffffffffffffffffffffffffff1662fdd58e33866040518363ffffffff1660e01b815260040161176a92919061281a565b602060405180830381865afa158015611787573d6000803e3d6000fd5b505050506040513d601f19601f820116820180604052508101906117ab9190612781565b149050806117e5576040517f232706ee00000000000000000000000000000000000000000000000000000000815260040160405180910390fd5b86866000600160008473ffffffffffffffffffffffffffffffffffffffff1673ffffffffffffffffffffffffffffffffffffffff16815260200190815260200160002060008381526020019081526020016000205403611871576040517f6407343b00000000000000000000000000000000000000000000000000000000815260040160405180910390fd5b6000899050600060018273ffffffffffffffffffffffffffffffffffffffff1662fdd58e338d6040518363ffffffff1660e01b81526004016118b492919061281a565b602060405180830381865afa1580156118d1573d6000803e3d6000fd5b505050506040513d601f19601f820116820180604052508101906118f59190612781565b1490508061192f576040517f232706ee00000000000000000000000000000000000000000000000000000000815260040160405180910390fd5b6000600160008d73ffffffffffffffffffffffffffffffffffffffff1673ffffffffffffffffffffffffffffffffffffffff16815260200190815260200160002060008c815260200190815260200160002054036119b9576040517f6407343b00000000000000000000000000000000000000000000000000000000815260040160405180910390fd5b88600160008d73ffffffffffffffffffffffffffffffffffffffff1673ffffffffffffffffffffffffffffffffffffffff16815260200190815260200160002060008c8152602001908152602001600020819055508a73ffffffffffffffffffffffffffffffffffffffff163373ffffffffffffffffffffffffffffffffffffffff167f88a14f938c07a2afe2cc96e2b04a435b661cecc772d130fcc8f8070bee3d3b548c8c604051611a6d929190612743565b60405180910390a35050505050505050505050565b600082826000600160008473ffffffffffffffffffffffffffffffffffffffff1673ffffffffffffffffffffffffffffffffffffffff16815260200190815260200160002060008381526020019081526020016000205403611b10576040517f6407343b00000000000000000000000000000000000000000000000000000000815260040160405180910390fd5b600160008673ffffffffffffffffffffffffffffffffffffffff1673ffffffffffffffffffffffffffffffffffffffff1681526020019081526020016000206000858152602001908152602001600020549250505092915050565b611b73611ec4565b73ffffffffffffffffffffffffffffffffffffffff16611b91610c95565b73ffffffffffffffffffffffffffffffffffffffff1614611bf057611bb4611ec4565b6040517f118cdaa7000000000000000000000000000000000000000000000000000000008152600401611be791906121bd565b60405180910390fd5b565b81816000829050600060018273ffffffffffffffffffffffffffffffffffffffff1662fdd58e33866040518363ffffffff1660e01b8152600401611c3792919061281a565b602060405180830381865afa158015611c54573d6000803e3d6000fd5b505050506040513d601f19601f82011682018060405250810190611c789190612781565b14905080611cb2576040517f232706ee00000000000000000000000000000000000000000000000000000000815260040160405180910390fd5b85856000600160008473ffffffffffffffffffffffffffffffffffffffff1673ffffffffffffffffffffffffffffffffffffffff16815260200190815260200160002060008381526020019081526020016000205403611d3e576040517f6407343b00000000000000000000000000000000000000000000000000000000815260040160405180910390fd5b88600260008a73ffffffffffffffffffffffffffffffffffffffff1673ffffffffffffffffffffffffffffffffffffffff168152602001908152602001600020600089815260200190815260200160002060006101000a81548173ffffffffffffffffffffffffffffffffffffffff021916908373ffffffffffffffffffffffffffffffffffffffff160217905550505050505050505050565b60008060009054906101000a900473ffffffffffffffffffffffffffffffffffffffff169050816000806101000a81548173ffffffffffffffffffffffffffffffffffffffff021916908373ffffffffffffffffffffffffffffffffffffffff1602179055508173ffffffffffffffffffffffffffffffffffffffff168173ffffffffffffffffffffffffffffffffffffffff167f8be0079c531659141344cd1fd0a4f28419497f9722a3daafe3b4186f6b6457e060405160405180910390a35050565b60007ff0c57e16840df040f15088dc2f81fe391c3923bec73e23a9662efc9c229c6a00905090565b600033905090565b6000604051905090565b600080fd5b600080fd5b600073ffffffffffffffffffffffffffffffffffffffff82169050919050565b6000611f0b82611ee0565b9050919050565b611f1b81611f00565b8114611f2657600080fd5b50565b600081359050611f3881611f12565b92915050565b6000819050919050565b611f5181611f3e565b8114611f5c57600080fd5b50565b600081359050611f6e81611f48565b92915050565b60008060408385031215611f8b57611f8a611ed6565b5b6000611f9985828601611f29565b9250506020611faa85828601611f5f565b9150509250929050565b611fbd81611f3e565b82525050565b6000602082019050611fd86000830184611fb4565b92915050565b600081519050919050565b600082825260208201905092915050565b60005b83811015612018578082015181840152602081019050611ffd565b60008484015250505050565b6000601f19601f8301169050919050565b600061204082611fde565b61204a8185611fe9565b935061205a818560208601611ffa565b61206381612024565b840191505092915050565b600060208201905081810360008301526120888184612035565b905092915050565b600060ff82169050919050565b6120a681612090565b81146120b157600080fd5b50565b6000813590506120c38161209d565b92915050565b6000602082840312156120df576120de611ed6565b5b60006120ed848285016120b4565b91505092915050565b60006020828403121561210c5761210b611ed6565b5b600061211a84828501611f29565b91505092915050565b60008060006060848603121561213c5761213b611ed6565b5b600061214a86828701611f29565b935050602061215b86828701611f5f565b925050604061216c86828701611f29565b9150509250925092565b600061ffff82169050919050565b61218d81612176565b82525050565b60006020820190506121a86000830184612184565b92915050565b6121b781611f00565b82525050565b60006020820190506121d260008301846121ae565b92915050565b60008115159050919050565b6121ed816121d8565b82525050565b600060208201905061220860008301846121e4565b92915050565b60008060006060848603121561222757612226611ed6565b5b600061223586828701611f29565b935050602061224686828701611f5f565b925050604061225786828701611f5f565b9150509250925092565b600080fd5b600080fd5b7f4e487b7100000000000000000000000000000000000000000000000000000000600052604160045260246000fd5b6122a382612024565b810181811067ffffffffffffffff821117156122c2576122c161226b565b5b80604052505050565b60006122d5611ecc565b90506122e1828261229a565b919050565b600067ffffffffffffffff8211156123015761230061226b565b5b61230a82612024565b9050602081019050919050565b82818337600083830152505050565b6000612339612334846122e6565b6122cb565b90508281526020810184848401111561235557612354612266565b5b612360848285612317565b509392505050565b600082601f83011261237d5761237c612261565b5b813561238d848260208601612326565b91505092915050565b61239f81612176565b81146123aa57600080fd5b50565b6000813590506123bc81612396565b92915050565b6000806000606084860312156123db576123da611ed6565b5b600084013567ffffffffffffffff8111156123f9576123f8611edb565b5b61240586828701612368565b9350506020612416868287016123ad565b925050604061242786828701611f29565b9150509250925092565b60006020828403121561244757612446611ed6565b5b600082013567ffffffffffffffff81111561246557612464611edb565b5b61247184828501612368565b91505092915050565b7f4e487b7100000000000000000000000000000000000000000000000000000000600052602260045260246000fd5b600060028204905060018216806124c157607f821691505b6020821081036124d4576124d361247a565b5b50919050565b6000819050919050565b6000819050919050565b60006125096125046124ff846124da565b6124e4565b611f3e565b9050919050565b612519816124ee565b82525050565b600082825260208201905092915050565b50565b600061254060008361251f565b915061254b82612530565b600082019050919050565b600060a08201905061256b60008301876121ae565b61257860208301866121ae565b6125856040830185611fb4565b6125926060830184612510565b81810360808301526125a381612533565b905095945050505050565b7f4e487b7100000000000000000000000000000000000000000000000000000000600052601160045260246000fd5b60006125e882611f3e565b91506125f383611f3e565b925082820261260181611f3e565b91508282048414831517612618576126176125ae565b5b5092915050565b7f4e487b7100000000000000000000000000000000000000000000000000000000600052601260045260246000fd5b600061265982611f3e565b915061266483611f3e565b9250826126745761267361261f565b5b828204905092915050565b600061268a82611f3e565b915061269583611f3e565b92508282039050818111156126ad576126ac6125ae565b5b92915050565b60006060820190506126c860008301866121ae565b6126d560208301856121ae565b6126e26040830184611fb4565b949350505050565b6126f3816121d8565b81146126fe57600080fd5b50565b600081519050612710816126ea565b92915050565b60006020828403121561272c5761272b611ed6565b5b600061273a84828501612701565b91505092915050565b60006040820190506127586000830185611fb4565b6127656020830184611fb4565b9392505050565b60008151905061277b81611f48565b92915050565b60006020828403121561279757612796611ed6565b5b60006127a58482850161276c565b91505092915050565b7f41646472657373206973206e6f7420616e20657263323020746f6b656e000000600082015250565b60006127e4601d83611fe9565b91506127ef826127ae565b602082019050919050565b60006020820190508181036000830152612813816127d7565b9050919050565b600060408201905061282f60008301856121ae565b61283c6020830184611fb4565b9392505050565b60008190508160005260206000209050919050565b60006020601f8301049050919050565b600082821b905092915050565b6000600883026128a57fffffffffffffffffffffffffffffffffffffffffffffffffffffffffffffffff82612868565b6128af8683612868565b95508019841693508086168417925050509392505050565b60006128e26128dd6128d884611f3e565b6124e4565b611f3e565b9050919050565b6000819050919050565b6128fc836128c7565b612910612908826128e9565b848454612875565b825550505050565b600090565b612925612918565b6129308184846128f3565b505050565b5b818110156129545761294960008261291d565b600181019050612936565b5050565b601f8211156129995761296a81612843565b61297384612858565b81016020851015612982578190505b61299661298e85612858565b830182612935565b50505b505050565b600082821c905092915050565b60006129bc6000198460080261299e565b1980831691505092915050565b60006129d583836129ab565b9150826002028217905092915050565b6129ee82611fde565b67ffffffffffffffff811115612a0757612a0661226b565b5b612a1182546124a9565b612a1c828285612958565b600060209050601f831160018114612a4f5760008415612a3d578287015190505b612a4785826129c9565b865550612aaf565b601f198416612a5d86612843565b60005b82811015612a8557848901518255600182019150602085019450602081019050612a60565b86831015612aa25784890151612a9e601f8916826129ab565b8355505b6001600288020188555050505b505050505050565b600067ffffffffffffffff82169050919050565b6000612ae6612ae1612adc846124da565b6124e4565b612ab7565b9050919050565b612af681612acb565b82525050565b6000602082019050612b116000830184612aed565b92915050565b600081519050612b2681611f12565b92915050565b600060208284031215612b4257612b41611ed6565b5b6000612b5084828501612b17565b9150509291505056fea26469706673582212202bd5d981fc8b6e182b34e38a185fd4c31fc36f5269b2bc03de079ee6af2bfcbc64736f6c63430008180033",
  "linkReferences": {},
  "deployedLinkReferences": {}
}